:100000000C9473000C949F000C949F000C949F0020
:100010000C949F000C949F000C949F000C949F00E4
:100020000C949F000C949F000C949F000C949F00D4
:100030000C949F000C949F000C949F000C949F00C4
:100040000C949F000C949F000C949F000C949F00B4
:100050000C949F000C949F000C949F000C941F0123
:100060000C949F000C94C5030C94A5040C949F0061
:100070000C949F000C949F000C949F000C949F0084
:100080000C949F000C949F000C949F000C949F0074
:100090000C94FD030C94E4040C949F000C949F00BA
:1000A0000C949F000C949F000C949F000C949F0054
:1000B0000C949F000C949F000C949F000C949F0044
:1000C0000C949F000C949F000C949F000C9435049A
:1000D0000C9423050C949F000C946D040C94620501
:1000E0000C949F00CC0611241FBECFEFD1E2DEBFDF
:1000F000CDBF00E00CBF12E0A0E0B2E0E4E0F5E12B
:1001000000E00BBF02C007900D92AE32B107D9F7E5
:1001100014E0AEE2B2E001C01D92A73DB107E1F7E5
:1001200010E0C6EED0E004C02297FE010E947C0AD7
:10013000C43ED107C9F70E94AC000C94000A0C948D
:1001400000000E94670187E594E040E855E260E026
:1001500070E00E94A10508956F927F928F929F9206
:10016000AF92BF92CF92DF92EF92FF920F931F93C5
:10017000DF93CF93CDB7DEB76C970FB6F894DEBFA1
:100180000FBECDBF0E94A100EE24FF242FE0622EFF
:10019000712C6C0E7D1E98E0892E912C8C0E9D1E6C
:1001A00086E1A82EB12CAC0EBD1E6E010894C11CB8
:1001B000D11C87E594E00E94270618161906CCF793
:1001C00087E594E00E945806843599F7C30160E002
:1001D00072E00E94A202C401B7014AE00E94D50267
:1001E000C301B4010E946B026BE072E00E944F02F7
:1001F0008C010894E11CF11CC501B7014AE00E9482
:10020000D502C801B5010E946B0266E172E00E944E
:100210004F02BC01C6010E941D03C5010E942803B4
:10022000C4010E942803C3010E942E0387E594E0C5
:10023000B6010E94B103C6010E942803BACF1F92E3
:100240000F920FB60F9211242F933F938F939F938A
:10025000AF93BF938091320290913302A091340208
:10026000B0913502309136020196A11DB11D232FA8
:100270002D5F2D3720F02D570196A11DB11D209324
:1002800036028093320290933302A0933402B093EB
:10029000350280912E0290912F02A0913002B091F0
:1002A00031020196A11DB11D80932E0290932F0261
:1002B000A0933002B0933102BF91AF919F918F9183
:1002C0003F912F910F900FBE0F901F90189578942B
:1002D00084B5826084BD84B5816084BD85B582604B
:1002E00085BD85B5816085BDEEE6F0E080818160E9
:1002F0008083E1E8F0E010828081826080838081E9
:1003000081608083E0E8F0E0808181608083E1EBC0
:10031000F0E0808184608083E0EBF0E080818160A8
:100320008083E1E9F0E08081826080838081816068
:100330008083E0E9F0E0808181608083E1EAF0E0A1
:10034000808182608083808181608083E0EAF0E048
:10035000808181608083E1E2F1E08081826080833E
:10036000808181608083E0E2F1E080818160808330
:10037000EAE7F0E08081846080838081826080830E
:100380008081816080838081806880831092C10039
:100390000895FC01848195816817790748F40190DC
:1003A000F081E02D309721F0E60FF71F808108954E
:1003B00080E008950F931F93CF93DF93EC018B019F
:1003C0006F5F7F4F888199810E941F09009711F408
:1003D00080E005C0998388831B830A8381E0DF91D5
:1003E000CF911F910F910895CF93DF93EC018881F6
:1003F0009981892B29F08A819B818617970760F460
:10040000CE010E94DA01882341F08C819D81892BE5
:1004100019F4E881F981108281E0DF91CF9108958C
:10042000EF92FF920F931F93CF93DF93EC017B0129
:100430006C817D81E114F104C1F04115510599F001
:100440008A01060F171FB8010E94F401882369F082
:10045000888199812C813D81820F931FB7010E9471
:100460000C0A1D830C8381E001C080E0DF91CF91F5
:100470001F910F91FF90EF900895CF93DF93EC01C0
:1004800088819981009711F00E948708198218824B
:100490001D821C821B821A82DF91CF9108950F93D7
:1004A0001F93182F092F6115710561F0DB010D9065
:1004B0000020E9F71197A61BB70BAD010E941002AF
:1004C000882321F4812F902F0E943D02812F902FAD
:1004D0001F910F9108950F931F93182F092FFB0160
:1004E00060817181448155810E941002882321F42A
:1004F000812F902F0E943D02812F902F1F910F91ED
:100500000895EF92FF920F931F93CF93DF93EC0127
:100510007B018A01BA010E94F401882321F4CE01F3
:100520000E943D0207C01D830C8388819981B70119
:100530000E940C0ACE01DF91CF911F910F91FF9085
:10054000EF900895CF93DF93EC01198218821B82FC
:100550001A821D821C821E826115710551F0DB0119
:100560000D900020E9F71197A61BB70BAD010E9473
:100570008102DF91CF9108950F931F93182F092FB8
:100580006115710559F0DB010D900020E9F7119715
:10059000A61BB70BAD010E94810202C00E943D0262
:1005A000812F902F1F910F910895EF92FF920F933B
:1005B0001F93DF93CF93CDB7DEB762970FB6F89452
:1005C000DEBF0FBECDBF8C01CB01F80111821082BE
:1005D000138212821582148216827E010894E11C15
:1005E000F11CB70150E00E94130AC801B7010E9434
:1005F000BC0262960FB6F894DEBF0FBECDBFCF919E
:10060000DF911F910F91FF90EF900895CF93DF93AB
:10061000EC01FB018617970761F06081718161151C
:10062000710529F0448155810E94810202C00E9417
:100630003D02CE01DF91CF910895FC01118210821D
:10064000138212821582148216820E940603089574
:10065000FC01808191810E9487080895FC018081BE
:1006600091810E9487080895CF92DF92EF92FF92C6
:100670000F931F93CF93DF937C016B018A01C0E03E
:10068000D0E00FC0D6016D916D01D701ED91FC91C5
:100690000190F081E02DC7011995C80FD91F0150B5
:1006A00010400115110571F7CE01DF91CF911F9117
:1006B0000F91FF90EF90DF90CF900895EF92FF920F
:1006C0000F931F938C01DC01ED91FC910190F0815F
:1006D000E02D6DE019957C01D801ED91FC91019020
:1006E000F081E02DC8016AE019959C012E0D3F1D97
:1006F000C9011F910F91FF90EF900895AF92BF92A3
:10070000CF92DF92EF92FF920F931F93CF93DF93DD
:100710005C016B01C0E0D0E0EE24FF2410C0D501E5
:10072000ED91FC9100811181C601BE010E94C901B9
:10073000682FC501F8011995E80EF91E2196F601FA
:1007400084819581C817D90750F3C701DF91CF91F4
:100750001F910F91FF90EF90DF90CF90BF90AF90DF
:100760000895EF92FF920F931F937C010E947E03E6
:100770008C01C7010E945E039C01200F311FC9013B
:100780001F910F91FF90EF9008951F920F920FB657
:100790000F920BB60F9211242F933F934F938F9389
:1007A0009F93EF93FF934091C60020917702309181
:1007B00078022F5F3F4F2F733070809179029091B4
:1007C0007A022817390759F0E0917702F091780200
:1007D000E95CFD4F40833093780220937702FF91CC
:1007E000EF919F918F914F913F912F910F900BBE61
:1007F0000F900FBE0F901F9018951F920F920FB67B
:100800000F920BB60F9211242F933F934F938F9318
:100810009F93EF93FF934091CE002091FF02309180
:1008200000032F5F3F4F2F73307080910103909131
:1008300002032817390759F0E091FF02F0910003F5
:10084000E154FD4F4083309300032093FF02FF915A
:10085000EF919F918F914F913F912F910F900BBEF0
:100860000F900FBE0F901F9018951F920F920FB60A
:100870000F920BB60F9211242F933F934F938F93A8
:100880009F93EF93FF934091D6002091870330917F
:1008900088032F5F3F4F2F733070809189039091B1
:1008A0008A032817390759F0E0918703F0918803EC
:1008B000E95BFC4F40833093880320938703FF91CB
:1008C000EF919F918F914F913F912F910F900BBE80
:1008D0000F900FBE0F901F9018951F920F920FB69A
:1008E0000F920BB60F9211242F933F934F938F9338
:1008F0009F93EF93FF934091360120910F04309125
:1009000010042F5F3F4F2F7330708091110490912E
:1009100012042817390759F0E0910F04F0911004E0
:10092000E153FC4F40833093100420930F04FF9158
:10093000EF919F918F914F913F912F910F900BBE0F
:100940000F900FBE0F901F9018951F920F920FB629
:100950000F920BB60F9211242F933F938F939F9377
:10096000EF93FF932091BB023091BC028091BD02B6
:100970009091BE022817390731F48091C1008F7D14
:100980008093C10014C0E091BD02F091BE02E55811
:10099000FD4F20818091BD029091BE0201968F7320
:1009A00090709093BE028093BD022093C600FF9189
:1009B000EF919F918F913F912F910F900BBE0F90D0
:1009C0000FBE0F901F9018951F920F920FB60F92A7
:1009D0000BB60F9211242F933F938F939F93EF9316
:1009E000FF932091430330914403809145039091FC
:1009F00046032817390731F48091C9008F7D809311
:100A0000C90014C0E0914503F0914603ED5FFC4F2F
:100A10002081809145039091460301968F739070D9
:100A200090934603809345032093CE00FF91EF916E
:100A30009F918F913F912F910F900BBE0F900FBE02
:100A40000F901F9018951F920F920FB60F920BB632
:100A50000F9211242F933F938F939F93EF93FF93C4
:100A60002091CB033091CC038091CD039091CE03A4
:100A70002817390731F48091D1008F7D8093D10000
:100A800014C0E091CD03F091CE03E557FC4F2081D7
:100A90008091CD039091CE0301968F7390709093C7
:100AA000CE038093CD032093D600FF91EF919F91C9
:100AB0008F913F912F910F900BBE0F900FBE0F9013
:100AC0001F9018951F920F920FB60F920BB60F92B0
:100AD00011242F933F938F939F93EF93FF93209134
:100AE0005304309154048091550490915604281772
:100AF000390731F4809131018F7D8093310114C029
:100B0000E0915504F0915604ED5EFB4F20818091F9
:100B100055049091560401968F73907090935604EB
:100B20008093550420933601FF91EF919F918F910F
:100B30003F912F910F900BBE0F900FBE0F901F9003
:100B40001895AF92BF92DF92EF92FF920F931F938F
:100B5000CF93DF93EC017A018B01DD24403081EEED
:100B6000580780E0680780E0780711F0DD24D3940F
:100B700091E0A92EB12CEC89FD89DD2069F0C50139
:100B80000E8C02C0880F991F0A94E2F7808360E000
:100B900079E08DE390E005C0108260E874E88EE1B2
:100BA00090E0A80197010E94580A2150304040402F
:100BB0005040569547953795279580E12030380766
:100BC00020F0DD2011F0DD24D6CFE889F9893083CB
:100BD000EA89FB892083EE89FF89408121E030E0AA
:100BE000C9010A8C02C0880F991F0A94E2F7482BAA
:100BF0004083EE89FF894081C9010B8C02C0880FB8
:100C0000991F0A94E2F7482B4083EE89FF894081BF
:100C1000C9010C8C02C0880F991F0A94E2F7482B77
:100C20004083EE89FF8980810D8C02C0220F331F23
:100C30000A94E2F7209528232083DF91CF911F911A
:100C40000F91FF90EF90DF90BF90AF900895DC017F
:100C50001C96ED91FC911D97E05CFF4F2191319125
:100C600080819181281B390B2F733070C901089541
:100C7000DC011C96ED91FC911D97E05CFF4F2081FB
:100C80003181E054F040DF01AE5BBF4F8D919C910C
:100C900011972817390719F42FEF3FEF07C08D91EF
:100CA0009C91E80FF91F8081282F30E0C901089539
:100CB000DC011C96ED91FC911D97E05CFF4F2081BB
:100CC0003181E054F040DF01AE5BBF4F8D919C91CC
:100CD00011972817390719F42FEF3FEF10C08D91A6
:100CE0009C911197E80FF91F20818D919C9111978C
:100CF00001968F73907011969C938E9330E0C9018A
:100D00000895FC0186859785DC01A05CBF4FFC013E
:100D1000EE5BFF4F2D913C911197808191812817B7
:100D20003907C1F70895CF93DF93EC01EE85FF8576
:100D3000E05CFF4F20813181E054F0402F5F3F4F56
:100D40002F733070DF01AE5BBF4F8D919C91119777
:100D500028173907D1F3E05CFF4F80819181E0547F
:100D6000F040E80FF91F6083EE85FF85E05CFF4FE0
:100D700031832083EE89FF89208181E090E00D8C12
:100D800002C0880F991F0A94E2F7282B208381E084
:100D900090E0DF91CF9108951F9310925A04109222
:100DA000590428EE33E040E050E020935B04309398
:100DB0005C0440935D0450935E0462E272E07093C1
:100DC00058046093570487E392E0909364048093FF
:100DD00063048BE792E0909366048093650485EC4E
:100DE00090E0909368048093670484EC90E0909383
:100DF0006A048093690480EC90E090936C04809383
:100E00006B0481EC90E090936E0480936D0486EC0B
:100E100090E09093700480936F0414E01093710439
:100E2000B3E0B0937204A7E0A0937304F5E0F093ED
:100E30007404E1E0E0937504109279041092780450
:100E400020937A0430937B0440937C0450937D0478
:100E500070937704609376048FEB92E09093830411
:100E60008093820483E093E09093850480938404CC
:100E70008DEC90E090938704809386048CEC90E056
:100E8000909389048093880488EC90E090938B047D
:100E900080938A0489EC90E090938D0480938C0475
:100EA0008EEC90E090938F0480938E0410939004C6
:100EB000B0939104A0939204F0939304E09394046C
:100EC00010929804109297042093990430939A04F6
:100ED00040939B0450939C047093960460939504F4
:100EE00087E493E09093A2048093A1048BE893E0BD
:100EF0009093A4048093A30485ED90E09093A604BE
:100F00008093A50484ED90E09093A8048093A704B7
:100F100080ED90E09093AA048093A90481ED90E085
:100F20009093AC048093AB0486ED90E09093AE0474
:100F30008093AD041093AF04B093B004A093B104B8
:100F4000F093B204E093B3041092B7041092B60485
:100F50002093B8043093B9044093BA045093BB046F
:100F60007093B5046093B4048FEC93E09093C10444
:100F70008093C00483E194E09093C3048093C204FF
:100F800085E391E09093C5048093C40484E391E0E9
:100F90009093C7048093C60480E391E09093C904C2
:100FA0008093C80481E391E09093CB048093CA04BA
:100FB00086E391E09093CD048093CC041093CE040B
:100FC000B093CF04A093D004F093D104E093D20463
:100FD0001F9108950F931F93CF93DF93BC0182302D
:100FE000910510F462E070E0E091D504F091D60430
:100FF000A0E0B0E040E050E024C0808191818617FD
:101000009707D0F08617970771F482819381109724
:1010100029F013969C938E9312972CC09093D6042C
:101020008093D50427C04115510519F08417950701
:1010300018F4EF018D01AC01DF01828193819C01E5
:10104000F9013097D1F641155105F9F0CA01861B17
:10105000970B8430910580F48A819B8101151105DD
:1010600021F0F8019383828304C09093D604809387
:10107000D504FE01329645C0FE01E80FF91F6193C9
:1010800071930297998388833CC08091D304909197
:10109000D404892B41F480911A0290911B02909301
:1010A000D4048093D30440911C0250911D02411539
:1010B000510541F44DB75EB7809118029091190225
:1010C000481B590B2091D3043091D40424173507C1
:1010D000B0F4CA01821B930B8617970780F0AB010F
:1010E0004E5F5F4F8417950750F0420F531F509388
:1010F000D4044093D304F9016193719302C0E0E0FA
:10110000F0E0CF01DF91CF911F910F910895CF9320
:10111000DF939C01009709F48FC0EC0122971B829A
:101120001A826091D5047091D6046115710581F41D
:1011300088819981820F931F2091D3043091D40428
:101140002817390739F5D093D404C093D30474C059
:10115000DB0140E050E0AC17BD0708F1BB83AA8378
:10116000FE0121913191E20FF31FAE17BF0779F411
:101170008D919C911197280F391F2E5F3F4F398316
:10118000288312968D919C9113979B838A83411596
:10119000510571F4D093D604C093D5044DC0129676
:1011A0008D919C911397AD01009711F0DC01D3CF85
:1011B000DA011396DC93CE931297FA0121913191C3
:1011C000E20FF31FCE17DF0769F488819981280F9A
:1011D000391F2E5F3F4FFA01318320838A819B8123
:1011E00093838283E0E0F0E0DB0112968D919C9185
:1011F0001397009719F0BC01FD01F6CFAB014E5FCC
:101200005F4FDB018D919C91840F951F2091D3043A
:101210003091D4042817390779F4309729F41092C3
:10122000D6041092D50402C013821282425050405C
:101230005093D4044093D304DF91CF9108956F92DB
:101240007F928F929F92AF92BF92CF92DF92EF9256
:10125000FF920F931F93CF93DF938C01009729F494
:10126000CB010E94EA078C01BBC08EEFE82E8FEF06
:10127000F82EE00EF11E4801860E971E8E149F0474
:1012800008F4ACC0D7014D915C91119746175707F0
:10129000B8F04530510508F4A3C0CA010497861779
:1012A000970708F49DC042505040461B570BF4016D
:1012B000419351936D937C93CF010E94870890C016
:1012C0005B01A41AB50A3801640E751EA091D504FD
:1012D000B091D604CC24DD24E0E0F0E047C0A615B0
:1012E000B705A9F5CD91DC911197CE0102968A152B
:1012F0009B0568F1CE018A199B09029612962C91E2
:10130000129713963C91059758F0F401228333838A
:10131000CA19DB09D183C083D7016D937C9309C0BF
:101320004E5F5F4F4C0F5D1FF70151834083C90132
:10133000FC01C114D10431F0D6011396FC93EE9355
:1013400012974EC0F093D604E093D50449C08D9116
:101350009C911197E817F90708F4FC016D011296AA
:101360008C91129713969C919C01D901109709F0CA
:10137000B6CF8091D3049091D40486159705E9F4F3
:10138000E617F707D0F420911C0230911D022115B9
:10139000310541F42DB73EB78091180290911902A2
:1013A000281B390B82169306C8F49092D4048092BD
:1013B000D304F7017183608313C0CB010E94EA0755
:1013C000EC01009759F0D7014D915C91B8010E9452
:1013D000030AC8010E9487088E0102C000E010E0E5
:1013E000C801DF91CF911F910F91FF90EF90DF9097
:1013F000CF90BF90AF909F908F907F906F90089507
:10140000F8940C94800AFB01DC0102C001900D925B
:1014100041505040D8F70895FB01DC0101900D9236
:101420000020E1F70895FB019F01E8944230C4F0E9
:101430004532B4F44A3029F497FB1EF49095819517
:101440009F4F642F77270E94440A805D8A330CF0F7
:10145000895D8193CB010097A1F716F45DE251936A
:101460001082C9010C94340ADC01FC01672F7191D0
:101470007723E1F7329704C07C916D93708362917A
:10148000AE17BF07C8F30895AA1BBB1B51E107C0E5
:10149000AA1FBB1FA617B70710F0A61BB70B881F04
:1014A000991F5A95A9F780959095BC01CD01089593
:1014B000A1E21A2EAA1BBB1BFD010DC0AA1FBB1F58
:1014C000EE1FFF1FA217B307E407F50720F0A21BCA
:1014D000B30BE40BF50B661F771F881F991F1A9437
:1014E00069F760957095809590959B01AC01BD0161
:1014F000CF010895EE0FFF1F0590F491E02D199490
:04150000F894FFCF8D
:101504007B2256616C756531223A002C2256616C3F
:10151400756532223A007D002000D70400000000E7
:0E152400000093063403270658063806810699
:00000001FF
