:100000000C9403010C942F010C942F010C942F01DC
:100010000C942F010C942F010C942F010C942F01A0
:100020000C942F010C942F010C942F010C942F0190
:100030000C942F010C942F010C942F010C942F0180
:100040000C942F010C942F010C942F010C942F0170
:100050000C942F010C942F010C942F010C94B801D7
:100060000C942F010C94C4040C94A4050C942F013F
:100070000C942F010C942F010C942F010C942F0140
:100080000C942F010C942F010C942F010C942F0130
:100090000C94FC040C94E3050C942F010C942F0198
:1000A0000C942F010C942F010C942F010C942F0110
:1000B0000C942F010C942F010C942F010C942F0100
:1000C0000C942F010C942F010C942F010C943405E7
:1000D0000C9422060C942F010C946C050C94610670
:1000E0000C942F0100002100240027002A002D007D
:1000F0003000330001010000040107010A01000083
:100100002200250028002B002E00310034000201BF
:100110000000050108010B0100002000230026005B
:1001200029002C002F00320000010000030106010D
:10013000090105050505070508080808020202026D
:100140000A0A080804040404010101010101010173
:100150000303030303030303040707070C0C0C0C3E
:100160000C0C0C0C02020202060606060606060627
:100170000B0B0B0B0B0B0B0B0102102020080810B4
:100180002040102040800201020108040201010207
:1001900004081020408080402010080402018004E0
:1001A000020180402010080402010804020101023B
:1001B0000408102040800102040810204080000044
:1001C000090A02080B0C0D070603040100000000D9
:1001D000000000000000000000000000000000001F
:1001E0000000000000000000000011100F000000DF
:1001F00000000000000000000000000000000000FF
:1002000000000000CB0711241FBECFEFD1E2DEBFFC
:10021000CDBF00E00CBF12E0A0E0B2E0E2E0F7E109
:1002200000E00BBF02C007900D92A833B107D9F7C9
:1002300014E0A8E3B2E001C01D92A13EB107E1F7CE
:1002400012E0C6E0D2E004C02297FE010E947B0BC0
:10025000C430D107C9F70E9431010C94FF0A0C94F5
:1002600000006F927F928F929F92AF92BF92CF9237
:10027000DF92EF92FF920F931F93DF93CF93CDB74F
:10028000DEB76C970FB6F894DEBF0FBECDBF0E94ED
:10029000000281E694E040E855E260E070E00E94F0
:1002A000A0068DE061E00E946202EE24FF246E0150
:1002B0000894C11CD11C2FE0622E712C6C0E7D1E87
:1002C00098E0892E912C8C0E9D1E86E1A82EB12CD3
:1002D000AC0EBD1E81E694E00E9457078435D1F72D
:1002E000C60160E072E00E948203C30162E072E036
:1002F0000E949C03C401B7014AE00E94CF03C301DE
:10030000B4010E944B036CE072E00E942F036EE088
:1003100072E00E942F038C010894E11CF11CC501BE
:10032000B7014AE00E94CF03C801B5010E944B0308
:1003300068E172E00E942F03BC01C6010E94150310
:10034000C5010E940004C4010E940004C3010E9470
:10035000060481E694E0B6010E94B00481E694E0D0
:100360006AE172E00E946A04C6010E940004B2CFF2
:100370001F920F920FB60F9211242F933F938F93DA
:100380009F93AF93BF9380913C0290913D02A091C7
:100390003E02B0913F02309140020196A11DB11D75
:1003A000232F2D5F2D3720F02D570196A11DB11D54
:1003B0002093400280933C0290933D02A0933E0222
:1003C000B0933F028091380290913902A0913A0295
:1003D000B0913B020196A11DB11D8093380290930C
:1003E0003902A0933A02B0933B02BF91AF919F9123
:1003F0008F913F912F910F900FBE0F901F901895E6
:10040000789484B5826084BD84B5816084BD85B5EF
:10041000826085BD85B5816085BDEEE6F0E08081B6
:1004200081608083E1E8F0E01082808182608083D7
:10043000808181608083E0E8F0E08081816080835A
:10044000E1EBF0E0808184608083E0EBF0E080818C
:1004500081608083E1E9F0E0808182608083808137
:1004600081608083E0E9F0E0808181608083E1EA5F
:10047000F0E0808182608083808181608083E0EA17
:10048000F0E0808181608083E1E2F1E08081826040
:100490008083808181608083E0E2F1E080818160FF
:1004A0008083EAE7F0E080818460808380818260DD
:1004B00080838081816080838081806880831092C6
:1004C000C1000895CF93DF93482F50E0CA018858A8
:1004D0009E4FFC0134914E5C5E4FFA01849188235B
:1004E00069F190E0880F991FFC01EC51FF4FA59135
:1004F000B491FC01E250FF4FC591D491662351F4B1
:100500002FB7F8948C91932F909589238C938881A1
:1005100089230BC0623061F42FB7F8948C91932F2C
:10052000909589238C938881832B88832FBF06C065
:100530009FB7F8948C91832B8C939FBFDF91CF91C1
:100540000895FC01848195816817790748F401902A
:10055000F081E02D309721F0E60FF71F808108959C
:1005600080E008950F931F93CF93DF93EC018B01ED
:100570006F5F7F4F888199810E941E0A009711F456
:1005800080E005C0998388831B830A8381E0DF9123
:10059000CF911F910F910895CF93DF93EC01888144
:1005A0009981892B29F08A819B818617970760F4AE
:1005B000CE010E94B202882341F08C819D81892B5B
:1005C00019F4E881F981108281E0DF91CF910895DB
:1005D000EF92FF920F931F93CF93DF93EC017B0178
:1005E0006C817D81E114F104C1F04115510599F050
:1005F0008A01060F171FB8010E94CC02882369F0F8
:10060000888199812C813D81820F931FB7010E94BF
:100610000B0B1D830C8381E001C080E0DF91CF9143
:100620001F910F91FF90EF900895FB016081718100
:10063000448155810E94E8020895CF93DF93EC0135
:1006400088819981009711F00E9486091982188289
:100650001D821C821B821A82DF91CF9108950F9315
:100660001F93182F092F6115710561F0DB010D90A3
:100670000020E9F71197A61BB70BAD010E94E80215
:10068000882321F4812F902F0E941D03812F902F0A
:100690001F910F9108950F931F93182F092FFB019E
:1006A00060817181448155810E94E802882321F490
:1006B000812F902F0E941D03812F902F1F910F914A
:1006C0000895EF92FF920F931F93CF93DF93EC0166
:1006D0007B018A01BA010E94CC02882321F4CE0159
:1006E0000E941D0307C01D830C8388819981B70177
:1006F0000E940B0BCE01DF91CF911F910F91FF90C4
:10070000EF900895CF93DF93EC01198218821B823A
:100710001A821D821C821E826115710551F0DB0157
:100720000D900020E9F71197A61BB70BAD010E94B1
:100730006103DF91CF910895CF93DF93EC0119828C
:1007400018821B821A821D821C821E82611571050D
:1007500051F0DB010D900020E9F71197A61BB70BB4
:10076000AD010E946103DF91CF9108950F931F9314
:10077000182F092F6115710559F0DB010D9000202C
:10078000E9F71197A61BB70BAD010E94610302C0E8
:100790000E941D03812F902F1F910F910895EF92BA
:1007A000FF920F931F93DF93CF93CDB7DEB762977E
:1007B0000FB6F894DEBF0FBECDBF8C01CB01F801A0
:1007C00011821082138212821582148216827E0197
:1007D0000894E11CF11CB70150E00E94120BC80103
:1007E000B7010E94B60362960FB6F894DEBF0FBE43
:1007F000CDBFCF91DF911F910F91FF90EF900895A2
:10080000FC01808191810E9486090895FC0180810C
:1008100091810E9486090895CF92DF92EF92FF9214
:100820000F931F93CF93DF937C016B018A01C0E08C
:10083000D0E00FC0D6016D916D01D701ED91FC9113
:100840000190F081E02DC7011995C80FD91F015003
:1008500010400115110571F7CE01DF91CF911F9165
:100860000F91FF90EF90DF90CF900895EF92FF925D
:100870000F931F938C01DC01ED91FC910190F081AD
:10088000E02D6DE019957C01D801ED91FC9101906E
:10089000F081E02DC8016AE019959C012E0D3F1DE5
:1008A000C9011F910F91FF90EF900895CF93DF93AF
:1008B000DB010D900020E9F71197A61BB70BEC01A7
:1008C000E881F9810280F381E02DAD011995DF9176
:1008D000CF910895EF92FF920F931F937C010E9496
:1008E00056048C01C7010E943604080F191FC80165
:1008F0001F910F91FF90EF900895AF92BF92CF920A
:10090000DF92EF92FF920F931F93CF93DF935C01DF
:100910006B01C0E0D0E0EE24FF2410C0D501ED91C2
:10092000FC9100811181C601BE010E94A102682FC5
:10093000C501F8011995E80EF91E2196F60184818A
:100940009581C817D90750F3C701DF91CF911F9147
:100950000F91FF90EF90DF90CF90BF90AF900895F0
:10096000EF92FF920F931F937C010E947D048C01F4
:10097000C7010E9436049C01200F311FC9011F913D
:100980000F91FF90EF9008951F920F920FB60F9264
:100990000BB60F9211242F933F934F938F939F93F6
:1009A000EF93FF934091C600209181023091820223
:1009B0002F5F3F4F2F73307080918302909184029C
:1009C0002817390759F0E0918102F0918202EF5B1C
:1009D000FD4F40833093820220938102FF91EF917B
:1009E0009F918F914F913F912F910F900BBE0F9040
:1009F0000FBE0F901F9018951F920F920FB60F9277
:100A00000BB60F9211242F933F934F938F939F9385
:100A1000EF93FF934091CE002091090330910A0398
:100A20002F5F3F4F2F73307080910B0390910C0319
:100A30002817390759F0E0910903F0910A03E753A9
:100A4000FD4F408330930A0320930903FF91EF91F8
:100A50009F918F914F913F912F910F900BBE0F90CF
:100A60000FBE0F901F9018951F920F920FB60F9206
:100A70000BB60F9211242F933F934F938F939F9315
:100A8000EF93FF934091D600209191033091920310
:100A90002F5F3F4F2F733070809193039091940399
:100AA0002817390759F0E0919103F0919203EF5A1A
:100AB000FC4F40833093920320939103FF91EF9179
:100AC0009F918F914F913F912F910F900BBE0F905F
:100AD0000FBE0F901F9018951F920F920FB60F9296
:100AE0000BB60F9211242F933F934F938F939F93A5
:100AF000EF93FF93409136012091190430911A042D
:100B00002F5F3F4F2F73307080911B0490911C0416
:100B10002817390759F0E0911904F0911A04E752A7
:100B2000FC4F408330931A0420931904FF91EF91F6
:100B30009F918F914F913F912F910F900BBE0F90EE
:100B40000FBE0F901F9018951F920F920FB60F9225
:100B50000BB60F9211242F933F938F939F93EF9394
:100B6000FF932091C5023091C6028091C7029091F7
:100B7000C8022817390731F48091C1008F7D809316
:100B8000C10014C0E091C702F091C802EB57FD4FBD
:100B900020818091C7029091C80201968F73907056
:100BA0009093C8028093C7022093C600FF91EF91F3
:100BB0009F918F913F912F910F900BBE0F900FBE81
:100BC0000F901F9018951F920F920FB60F920BB6B1
:100BD0000F9211242F933F938F939F93EF93FF9343
:100BE00020914D0330914E0380914F03909150031B
:100BF0002817390731F48091C9008F7D8093C9008F
:100C000014C0E0914F03F0915003E35FFC4F20814B
:100C100080914F039091500301968F739070909341
:100C2000500380934F032093CE00FF91EF919F914B
:100C30008F913F912F910F900BBE0F900FBE0F9091
:100C40001F9018951F920F920FB60F920BB60F922E
:100C500011242F933F938F939F93EF93FF932091B2
:100C6000D5033091D6038091D7039091D8032817EC
:100C7000390731F48091D1008F7D8093D10014C069
:100C8000E091D703F091D803EB56FC4F208180917F
:100C9000D7039091D80301968F7390709093D803E7
:100CA0008093D7032093D600FF91EF919F918F916E
:100CB0003F912F910F900BBE0F900FBE0F901F9082
:100CC00018951F920F920FB60F920BB60F92112428
:100CD0002F933F938F939F93EF93FF9320915D0406
:100CE00030915E0480915F04909160042817390769
:100CF00031F4809131018F7D8093310114C0E091F6
:100D00005F04F0916004E35EFB4F208180915F04FB
:100D10009091600401968F7390709093600480931B
:100D20005F0420933601FF91EF919F918F913F9146
:100D30002F910F900BBE0F900FBE0F901F90189524
:100D4000AF92BF92DF92EF92FF920F931F93CF93D8
:100D5000DF93EC017A018B01DD24403081EE5807EE
:100D600080E0680780E0780711F0DD24D39491E0FB
:100D7000A92EB12CEC89FD89DD2069F0C5010E8C0E
:100D800002C0880F991F0A94E2F7808360E079E03F
:100D90008DE390E005C0108260E874E88EE190E099
:100DA000A80197010E94570B21503040404050400D
:100DB000569547953795279580E12030380720F0E4
:100DC000DD2011F0DD24D6CFE889F9893083EA8966
:100DD000FB892083EE89FF89408121E030E0C90151
:100DE0000A8C02C0880F991F0A94E2F7482B4083AF
:100DF000EE89FF894081C9010B8C02C0880F991FC1
:100E00000A94E2F7482B4083EE89FF894081C901AB
:100E10000C8C02C0880F991F0A94E2F7482B40837C
:100E2000EE89FF8980810D8C02C0220F331F0A9446
:100E3000E2F7209528232083DF91CF911F910F9116
:100E4000FF90EF90DF90BF90AF900895DC011C966B
:100E5000ED91FC911D97E05CFF4F219131918081D4
:100E60009181281B390B2F733070C9010895DC0163
:100E70001C96ED91FC911D97E05CFF4F2081318124
:100E8000E054F040DF01AE5BBF4F8D919C91119714
:100E90002817390719F42FEF3FEF07C08D919C9168
:100EA000E80FF91F8081282F30E0C9010895DC0187
:100EB0001C96ED91FC911D97E05CFF4F20813181E4
:100EC000E054F040DF01AE5BBF4F8D919C911197D4
:100ED0002817390719F42FEF3FEF10C08D919C911F
:100EE0001197E80FF91F20818D919C911197019620
:100EF0008F73907011969C938E9330E0C901089582
:100F0000FC0186859785DC01A05CBF4FFC01EE5B90
:100F1000FF4F2D913C9111978081918128173907BE
:100F2000C1F70895CF93DF93EC01EE85FF85E05C78
:100F3000FF4F20813181E054F0402F5F3F4F2F73EE
:100F40003070DF01AE5BBF4F8D919C9111972817D8
:100F50003907D1F3E05CFF4F80819181E054F0408C
:100F6000E80FF91F6083EE85FF85E05CFF4F31835A
:100F70002083EE89FF89208181E090E00D8C02C002
:100F8000880F991F0A94E2F7282B208381E090E0D4
:100F9000DF91CF9108951F9310926404109263041F
:100FA00028EE33E040E050E020936504309366047F
:100FB00040936704509368046CE272E0709362049B
:100FC0006093610481E492E090936E0480936D04D9
:100FD00085E892E09093700480936F0485EC90E034
:100FE000909372048093710484EC90E09093740465
:100FF0008093730480EC90E0909376048093750462
:1010000081EC90E0909378048093770486EC90E0F4
:1010100090937A048093790414E010937B04B3E0F6
:10102000B0937C04A7E0A0937D04F5E0F0937E04E8
:10103000E1E0E0937F0410928304109282042093F5
:1010400084043093850440938604509387047093FE
:1010500081046093800489EC92E090938D048093E6
:101060008C048DE093E090938F0480938E048DEC3C
:1010700090E090939104809390048CEC90E0909396
:1010800093048093920488EC90E09093950480936D
:10109000940489EC90E090939704809396048EECEE
:1010A00090E0909399048093980410939A04B093DD
:1010B0009B04A0939C04F0939D04E0939E041092E3
:1010C000A2041092A1042093A3043093A40440939B
:1010D000A5045093A6047093A00460939F0481E537
:1010E00093E09093AC048093AB0485E993E09093F4
:1010F000AE048093AD0485ED90E09093B0048093AE
:10110000AF0484ED90E09093B2048093B10480ED3D
:1011100090E09093B4048093B30481ED90E09093B9
:10112000B6048093B50486ED90E09093B804809364
:10113000B7041093B904B093BA04A093BB04F0931E
:10114000BC04E093BD041092C1041092C00420932B
:10115000C2043093C3044093C4045093C5047093F5
:10116000BF046093BE0489ED93E09093CB04809319
:10117000CA048DE194E09093CD048093CC0485E380
:1011800091E09093CF048093CE0484E391E0909318
:10119000D1048093D00480E391E09093D3048093B2
:1011A000D20481E391E09093D5048093D40486E344
:1011B00091E09093D7048093D6041093D804B09311
:1011C000D904A093DA04F093DB04E093DC041F91CC
:1011D00008950F931F93CF93DF93BC018230910545
:1011E00010F462E070E0E091DF04F091E004A0E030
:1011F000B0E040E050E024C08081918186179707DD
:10120000D0F08617970771F482819381109729F0A7
:1012100013969C938E9312972CC09093E004809326
:10122000DF0427C04115510519F08417950718F4FC
:10123000EF018D01AC01DF01828193819C01F901F5
:101240003097D1F641155105F9F0CA01861B970B6D
:101250008430910580F48A819B810115110521F06C
:10126000F8019383828304C09093E0048093DF04A9
:10127000FE01329645C0FE01E80FF91F619371939C
:101280000297998388833CC08091DD049091DE04AD
:10129000892B41F480912402909125029093DE04E1
:1012A0008093DD044091260250912702411551059B
:1012B00041F44DB75EB78091220290912302481B02
:1012C000590B2091DD043091DE0424173507B0F46A
:1012D000CA01821B930B8617970780F0AB014E5F04
:1012E0005F4F8417950750F0420F531F5093DE0451
:1012F0004093DD04F9016193719302C0E0E0F0E0F6
:10130000CF01DF91CF911F910F910895CF93DF937C
:101310009C01009709F48FC0EC0122971B821A826E
:101320006091DF047091E0046115710581F488819A
:101330009981820F931F2091DD043091DE042817DC
:10134000390739F5D093DE04C093DD0474C0DB01A6
:1013500040E050E0AC17BD0708F1BB83AA83FE0153
:1013600021913191E20FF31FAE17BF0779F48D91F0
:101370009C911197280F391F2E5F3F4F3983288387
:1013800012968D919C9113979B838A8341155105E9
:1013900071F4D093E004C093DF044DC012968D9198
:1013A0009C911397AD01009711F0DC01D3CFDA01C6
:1013B0001396DC93CE931297FA0121913191E20FAB
:1013C000F31FCE17DF0769F488819981280F391F31
:1013D0002E5F3F4FFA01318320838A819B81938363
:1013E0008283E0E0F0E0DB0112968D919C911397EF
:1013F000009719F0BC01FD01F6CFAB014E5F5F4FC6
:10140000DB018D919C91840F951F2091DD0430911B
:10141000DE042817390779F4309729F41092E00494
:101420001092DF0402C01382128242505040509347
:10143000DE044093DD04DF91CF9108956F927F9297
:101440008F929F92AF92BF92CF92DF92EF92FF92D4
:101450000F931F93CF93DF938C01009729F4CB0157
:101460000E94E9088C01BBC08EEFE82E8FEFF82EAA
:10147000E00EF11E4801860E971E8E149F0408F49C
:10148000ACC0D7014D915C91119746175707B8F042
:101490004530510508F4A3C0CA0104978617970781
:1014A00008F49DC042505040461B570BF401419335
:1014B00051936D937C93CF010E94860990C05B018C
:1014C000A41AB50A3801640E751EA091DF04B0910C
:1014D000E004CC24DD24E0E0F0E047C0A615B70529
:1014E000A9F5CD91DC911197CE0102968A159B0545
:1014F00068F1CE018A199B09029612962C911297D7
:1015000013963C91059758F0F40122833383CA194E
:10151000DB09D183C083D7016D937C9309C04E5FF3
:101520005F4F4C0F5D1FF70151834083C901FC01E0
:10153000C114D10431F0D6011396FC93EE931297A7
:101540004EC0F093E004E093DF0449C08D919C917C
:101550001197E817F90708F4FC016D0112968C91B8
:10156000129713969C919C01D901109709F0B6CF60
:101570008091DD049091DE0486159705E9F4E61765
:10158000F707D0F42091260230912702211531056A
:1015900041F42DB73EB78091220290912302281B7F
:1015A000390B82169306C8F49092DE048092DD0413
:1015B000F7017183608313C0CB010E94E908EC013D
:1015C000009759F0D7014D915C91B8010E94020B30
:1015D000C8010E9486098E0102C000E010E0C80127
:1015E000DF91CF911F910F91FF90EF90DF90CF90FF
:1015F000BF90AF909F908F907F906F900895F894D8
:101600000C947F0BFB01DC0102C001900D92415054
:101610005040D8F70895FB01DC0101900D920020A5
:10162000E1F70895FB019F01E8944230C4F0453290
:10163000B4F44A3029F497FB1EF4909581959F4F9E
:10164000642F77270E94430B805D8A330CF0895DFD
:101650008193CB010097A1F716F45DE251931082BC
:10166000C9010C94330BDC01FC01672F71917723C6
:10167000E1F7329704C07C916D9370836291AE174D
:10168000BF07C8F30895AA1BBB1B51E107C0AA1FDF
:10169000BB1FA617B70710F0A61BB70B881F991F13
:1016A0005A95A9F780959095BC01CD010895A1E2C6
:1016B0001A2EAA1BBB1BFD010DC0AA1FBB1FEE1FCC
:1016C000FF1FA217B307E407F50720F0A21BB30B17
:1016D000E40BF50B661F771F881F991F1A9469F793
:1016E00060957095809590959B01AC01BD01CF01EF
:1016F0000895EE0FFF1F0590F491E02D1994F894D2
:02170000FFCF19
:101702007B002756616C756531273A002C00225602
:10171200616C756532223A007D004E4F5449434553
:1017220044002000E10400000000000092070C04C5
:0817320026075707370780075F
:00000001FF
